:0400000007EF00F016
:0A0008006982D9ED1CF0FFEF1EF035
:10100000000000803F000020410000C84200007A3C
:101010004400401C460050C3470024744980961881
:101020004B20BCBE4C286B6E4EF9021550EC78ADCF
:1010300060CAF249710000803FCDCCCC3D0AD72375
:101040003C6F12833A17B7D138ACC52737BD378606
:101050003595BFD63377CC2B325F708930FFE6DB16
:101060002E08E53C1E6042A20D010000000A0000AF
:101070000064000000E803000010270000A08601C3
:101080000040420F008096980000E1F50500CA9AE2
:101090003B5761726E696E672048696768205465C6
:1010A0006D70200A200D005468726573686F6C645F
:1010B000203D2025302E326600546D7020696E2050
:1010C00043203D2025302E316600546D7020696E1E
:1010D0002046203D2025302E31660054682054657E
:1010E0006D70203D2025302E3166005468207370CD
:0D10F00064203D2025302E3166000C0000EC
:1010FE00B60E0001C26F000EC36F3FEF0DF0250E4E
:10110E00D819D8B408D0B2C0D9FFB3C0DAFFD8C04E
:10111E00DFFF3DEF0DF0000ED16F000ED06F000E11
:10112E00CF6F000ECE6F04D00001CE85B44BB52B21
:10113E00B4C0F6FFB5C0F7FF0800F550300AD8B4BA
:10114E00F3D7B4C0F6FFB5C0F7FF0800F550E0ECDA
:10115E0020F0D8A034D0000E0001D16F000ED06F59
:10116E00D0C017F0D1C018F0000E1A6E0A0E196E0C
:10117E004DEC20F017C0D0F018C0D1F0D00E000109
:10118E00BA6FFF0EBB6FB4C0F6FFB5C0F7FF080015
:10119E00F550BC6FBD6BBA51BC27BB51BD23BC51C2
:1011AE00D027BD51D123B44BB52BB4C0F6FFB5C07B
:1011BE00F7FF0800F550E0EC20F0D8B0D1D7B4C05E
:1011CE00F6FFB5C0F7FF0800F5502E0AD8A430D0B0
:1011DE000001CF8DB44BB52B000ED76F000ED66F1E
:1011EE001CD0D6C017F0D7C018F0000E1A6E0A0E1B
:1011FE00196E4DEC20F0B4C0F6FFB5C0F7FF080035
:10120E00F5501726000E1822D00E17240001D66FA7
:10121E00FF0E1820D76FB44BB52BB4C0F6FFB5C078
:10122E00F7FF0800F550E0EC20F0D8A00AD0D9D78F
:10123E00000E0001D76F000ED66FCF8902D0CF857A
:10124E0014D0B4C0F6FFB5C0F7FF0001B44BB52BF8
:10125E000800F5CFD8F0D851000AD8B44CEF0DF0F5
:10126E00660AD8B4ECD73FEF0DF0070ECF15D8B401
:10127E0050D3CFA904D0000ED76F060ED66FC2C0C2
:10128E00D9FFC3C0DAFFDECFD2F0DECFD3F0DECF90
:10129E00D4F0DECFD5F0040EC227000EC323D5AF97
:1012AE0015D0D2C017F0D3C018F0D4C019F0D5C0E5
:1012BE001AF00AEC20F017C0D2F018C0D3F019C003
:1012CE00D4F01AC0D5F0030E0001CE13000ECD6F70
:1012DE00000ECC6FD251D311D411D511D8B482D007
:1012EE00D435D535820FCC6FCD6BFF0ECD23CC0709
:1012FE00D8A0CD07CCC017F0CDC018F0000E1A6ED6
:10130E00030E196E4DEC20F017C0CCF018C0CDF0C6
:10131E00CCC01DF0CDC01EF0000E206E0A0E1F6E4A
:10132E009FEC1DF01DC0CCF01EC0CDF00001CDAF66
:10133E0003D0CC07D8A0CD07CC510008BAEC10F0E2
:10134E0050C0C8F051C0C9F052C0CAF053C0CBF063
:10135E00C8C044F0C9C045F0CAC046F0CBC047F083
:10136E00D2C048F0D3C049F0D4C04AF0D5C04BF03B
:10137E00E2EC12F044C0C8F045C0C9F046C0CAF055
:10138E0047C0CBF0C8C017F0C9C018F0CAC019F0DA
:10139E00CBC01AF0000E1B6E000E1C6E800E1D6E62
:1013AE003F0E1E6E50EC1BF0D8B005D00001CC07DE
:1013BE00D8A0CD0717D0C8C017F0C9C018F0CAC042
:1013CE0019F0CBC01AF0000E1B6E000E1C6E200E14
:1013DE001D6E410E1E6E50EC1BF0D8A003D0000106
:1013EE00CC4BCD2B0001D7BF06D0D75121E10D0E2E
:1013FE00D65DD8B01DD0D2C096F0D3C097F0D4C071
:10140E0098F0D5C099F0D65184EC17F050C09AF0F0
:10141E0051C09BF052C09CF053C09DF08BEC14F069
:10142E0096C0D2F097C0D3F098C0D4F099C0D5F042
:10143E000001CDBF06D0CD5122E10A0ECC5DD8B051
:10144E001ED0D251D311D411D511D8B463D0D2C07D
:10145E0092F0D3C093F0D4C094F0D5C095F06AEC5E
:10146E001CF000019251931194119511D8B4CDBF77
:10147E0051D0CD5104E1020ECC5DD8A04BD0C8C0E6
:10148E0017F0C9C018F0CAC019F0CBC01AF05F0E21
:10149E001B6E700E1C6E890E1D6E400E1E6E50EC75
:1014AE001BF0D8B003D00001F70E02D00001F80EE9
:1014BE00CC27FF0ECD23CC51BAEC10F050C0C8F0A3
:1014CE0051C0C9F052C0CAF053C0CBF0D2C017F011
:1014DE00D3C018F0D4C019F0D5C01AF0C8C01BF094
:1014EE00C9C01CF0CAC01DF0CBC01EF0BCEC1AF077
:1014FE0017C0C4F018C0C5F019C0C6F01AC0C7F0A6
:10150E00000E0001D26F000ED36F000ED46F000ECE
:10151E00D56F3CD0D2C092F0D3C093F0D4C094F02B
:10152E00D5C095F06AEC1CF092C0C4F093C0C5F023
:10153E0094C0C6F095C0C7F0D2C0AAF0D3C0ABF02D
:10154E00D4C0ACF0D5C0ADF0C4C01DF0C5C01EF007
:10155E00C6C01FF0C7C020F0000E7BEC19F01DC0F6
:10156E00AEF01EC0AFF01FC0B0F020C0B1F084ECE2
:10157E001FF0AAC0D2F0ABC0D3F0ACC0D4F0ADC057
:10158E00D5F0000E0001CD6F000ECC6F010ED86F9E
:10159E000A0ED819D8B418D0D851040D690EF324F8
:1015AE00F66E100EF420F76E0900F550C45D0900BA
:1015BE00F550C5590900F550C6590900F550C759DF
:1015CE00D8A002D0D82BE4D7D8C0BAF0BB6BBABF24
:1015DE00BB07D651BA27D751BB23CC51BA27CD5111
:1015EE00BB23BA51D05FBB51D15BD651D711D8B402
:1015FE0003D0D007D8A0D107030ECE15BA6F000EB8
:10160E00CF15BB6FBA51BB11D8B403D0D007D8A039
:10161E00D107CEA531D0030ECE15BA6F000ECF1561
:10162E00BB6FBA51BB11D8B414D0B2C0D9FFB3C07E
:10163E00DAFF2D0EDF6EB24BB32B0BD0B2C0D9FF3B
:10164E00B3C0DAFF300EDF6EB24BB32BD007D8A08B
:10165E00D107D1BF72D0D151F1E1D005D8A06DD054
:10166E00EDD7B2C0D9FFB3C0DAFF200EDF6EB24B9A
:10167E00B32BD007D8A0D107D1BF05D0D151F1E1FE
:10168E00D005D8B0EED7030ECE15BA6F000ECF151B
:10169E00BB6FBA51BB11D8B450D0B2C0D9FFB3C0D2
:1016AE00DAFF2D0E47D0C4C017F0C5C018F0C6C063
:1016BE0019F0C7C01AF0D851040D690EF324F66E56
:1016CE00100EF420F76E0900F5CF1BF00900F5CFD0
:1016DE001CF00900F5CF1DF00A00F5CF1EF0E1EC6D
:1016EE001DF017C0C8F018C0C9F019C0CAF01AC052
:1016FE00CBF0C8C017F0C9C018F0CAC019F0CBC0E3
:10170E001AF00A0E1B6E000E1C6E000E1D6E000EE1
:10171E001E6E9BEC1EF017C0C8F018C0C9F019C0A1
:10172E00CAF01AC0CBF00001C851300FB2C0D9FFB9
:10173E00B3C0DAFFDF6EB24BB32BD807D829D8B4BB
:10174E000CD0B1D7B2C0D9FFB3C0DAFF300EDF6E06
:10175E00B24BB32BCC07D8A0CD07CDBF05D0CD5102
:10176E00F1E1CC05D8B0EED7D7BF09D0D75104E1FF
:10177E00090ED65DD8A003D0080ED86F02D0D6C001
:10178E00D8F0D851D65F000ED8BFFF0ED75BD85118
:10179E00D8B408D0B2C0D9FFB3C0DAFF2E0EDF6EB8
:1017AE00B24BB32BD851BAEC10F050C0BEF051C0B2
:1017BE00BFF052C0C0F053C0C1F0D2C048F0D3C089
:1017CE0049F0D4C04AF0D5C04BF0BEC044F0BFC003
:1017DE0045F0C0C046F0C1C047F0E2EC12F044C084
:1017EE0092F045C093F046C094F047C095F06AEC75
:1017FE001CF092C0C4F093C0C5F094C0C6F095C062
:10180E00C7F071D0C4C017F0C5C018F0C6C019F02B
:10181E00C7C01AF00001D851040D690EF324F66EFC
:10182E00100EF420F76E0900F5CF1BF00900F5CF6E
:10183E001CF00900F5CF1DF00A00F5CF1EF0E1EC0B
:10184E001DF017C0C8F018C0C9F019C0CAF01AC0F0
:10185E00CBF0C8C017F0C9C018F0CAC019F0CBC081
:10186E001AF00A0E1B6E000E1C6E000E1D6E000E80
:10187E001E6E9BEC1EF017C0C8F018C0C9F019C040
:10188E00CAF01AC0CBF00001C851300FB2C0D9FF58
:10189E00B3C0DAFFDF6EB24BB32BC4C017F0C5C0B6
:1018AE0018F0C6C019F0C7C01AF0D851040D690E51
:1018BE00F324F66E100EF420F76E0900F5CF1BF030
:1018CE000900F5CF1CF00900F5CF1DF00A00F5CF89
:1018DE001EF09BEC1EF017C0C4F018C0C5F019C066
:1018EE00C6F01AC0C7F00001D807D829D8B40CD05A
:1018FE0089D7B2C0D9FFB3C0DAFF300EDF6EB24B5C
:10190E00B32BD607D8A0D707D651D711D8B4B0D09D
:10191E00F0D7D651D711D8A408D0C451C511C611CD
:10192E00C711D8A402D0D64BD72B800ED8BF7F0EAE
:10193E00BA6FD651D85DD751800ABA59D8B003D0F4
:10194E00D6C0D8F010D0D751800ABA6FD851D65D14
:10195E00800ED8BF7F0EBA59D8B005D0D851D66FE9
:10196E00D76BD6BFD707D051D111D8B40DD0030E37
:10197E00CE15BA6F000ECF15BB6FBA51BB11D8B4CE
:10198E0003D0D007D8A0D107CFAD13D0D051D65D9C
:10199E00D751800ABA6FD151800ABA59D8B005D042
:1019AE00D651D05FD751D15B04D0000ED16F000E4F
:1019BE00D06F800ED8BF7F0EBA6FD051D85DD15187
:1019CE00800ABA59D8B007D0D851D05F000ED8BF10
:1019DE00FF0ED15B04D0000ED16F000ED06FCEA5DE
:1019EE0022D0030ECE15BA6F000ECF15BB6FBA51B3
:1019FE00BB11D8B408D0B2C0D9FFB3C0DAFF2D0ED8
:101A0E00DF6EB24BB32BD051D111D8B431D0B2C09E
:101A1E00D9FFB3C0DAFF300EDF6EB24BB32BD00757
:101A2E00D8A0D107F0D7D051D111D8B40FD0B2C0B1
:101A3E00D9FFB3C0DAFF200EDF6EB24BB32BD00747
:101A4E00D8A0D107D051D111D8A4F1D7030ECE15FD
:101A5E00BA6F000ECF15BB6FBA51BB11D8B408D0F8
:101A6E00B2C0D9FFB3C0DAFF2D0EDF6EB24BB32B6F
:101A7E00B4C0F6FFB5C0F7FFB44BB52B0800F5CFD9
:101A8E00D8F0D851D8A486EF08F0B2C0D9FFB3C0B1
:101A9E00DAFF000EDF6E1200EFEC20F0ACEC20F05F
:101AAE00CEEC1EF0FEEC20F013EC21F0828A0C0E30
:101ABE0059EC1FF0000E0101476F000E486F000E2B
:101ACE00496F000E4A6F000E2A6F000E2B6F000E2C
:101ADE002C6F000E2D6F000E4C6F000E4D6F000E12
:101AEE004E6F000E4F6F000E436F000E446F000ED0
:101AFE00456F000E466F000E3B6F000E3A6FCFEC37
:101B0E0020F09480070E926E020E0001DA6F040E22
:101B1E00D96FBA0EE82EFED7D92FFCD7DA2FFAD707
:101B2E0000F00400000E01014B6F020E4B6501D058
:101B3E0030D04B5122EC1EF044C020F145C021F1B3
:101B4E0046C022F147C023F120C144F021C145F027
:101B5E0022C146F023C147F0000E486E000E496EBA
:101B6E00C80E4A6E420E4B6EE2EC12F001014B5162
:101B7E00040D2E0EF324D96E010EF420DA6E44C03D
:101B8E00DEFF45C0DEFF46C0DEFF47C0DEFF4B2B4B
:101B9E00CCD736C147F137C148F138C149F139C107
:101BAE004AF12EC12BF02FC12CF030C12DF031C1D6
:101BBE002EF0000E2F6E000E306EC80E316E420EDD
:101BCE00326E2AEC16F02BC04CF12CC04DF12DC00C
:101BDE004EF12EC04FF1660E486E660E496EE60E41
:101BEE004A6E3F0E4B6E47C144F048C145F049C1A5
:101BFE0046F04AC147F0E2EC12F044C096F045C000
:101C0E0097F046C098F047C099F0000E00019A6F09
:101C1E00000E9B6F000E9C6F420E9D6F8BEC14F0AE
:101C2E0096C02AF197C02BF198C02CF199C02DF1D6
:101C3E0032C12BF033C12CF034C12DF035C12EF052
:101C4E00000E2F6E000E306EC80E316E420E326ECA
:101C5E002AEC16F02BC050F12CC051F12DC052F1D0
:101C6E002EC053F14CC192F04DC193F04EC194F081
:101C7E004FC195F06AEC1CF092C028F193C029F187
:101C8E00000E486E000E496E200E4A6E410E4B6ECF
:101C9E004CC144F04DC145F04EC146F04FC147F026
:101CAE00E2EC12F044C092F045C093F046C094F0BE
:101CBE0047C095F06AEC1CF092C03CF193C03DF128
:101CCE003CC117F03DC118F0000E1A6E0A0E196EC7
:101CDE0063EC1EF017C03CF118C03DF101015651E6
:101CEE005711D8B429D2CD80000E556F000E546F07
:101CFE00010E216E010ECCEC1FF062506310D8B4B1
:101D0E0014D0000E0001B26F010EB36FB90EB46F96
:101D1E00100EB56F47C1B6F048C1B7F049C1B8F063
:101D2E004AC1B9F07FEC08F013D0000E0001B26F7B
:101D3E00010EB36FCA0EB46F100EB56F2AC1B6F096
:101D4E002BC1B7F02CC1B8F02DC1B9F07FEC08F063
:101D5E00000E256E010E266E2EEC1FF0020E216E69
:101D6E00010ECCEC1FF0000E0001B26F010EB36F2E
:101D7E00A70EB46F100EB56F4CC1B6F04DC1B7F0D3
:101D8E004EC1B8F04FC1B9F07FEC08F0400E000123
:101D9E00B26F010EB36FC40EB46F100EB56F4CC19F
:101DAE00B6F04DC1B7F04EC1B8F04FC1B9F07FECEF
:101DBE0008F0000E256E010E266E2EEC1FF0000EA2
:101DCE002F6E000E306EA00E316E400E326E4CC174
:101DDE002BF04DC12CF04EC12DF04FC12EF02AEC40
:101DEE0016F02BC044F02CC045F02DC046F02EC08E
:101DFE0047F0000E486E000E496EA00E4A6E420E5F
:101E0E004B6EE2EC12F044C043F145C044F146C0C3
:101E1E0045F147C046F1030E216E010ECCEC1FF0CA
:101E2E00000E0001B26F010EB36FDB0EB46F100E19
:101E3E00B56F43C1B6F044C1B7F045C1B8F046C165
:101E4E00B9F07FEC08F0000E256E010E266E2EEC1A
:101E5E001FF0040E216E010ECCEC1FF0000E0001DF
:101E6E00B26F010EB36FEB0EB46F100EB56F50C1A3
:101E7E00B6F051C1B7F052C1B8F053C1B9F07FEC12
:101E8E0008F0000E256E010E266E2EEC1FF043C1DB
:101E9E0017F044C118F045C119F046C11AF047C1F8
:101EAE001BF048C11CF049C11DF04AC11EF050EC98
:101EBE001BF0D8B010D001013A513B11D8A40BD071
:101ECE00910E186E100E196E38EC20F0000E0101F6
:101EDE003B6F010E18D043C117F044C118F045C135
:101EEE0019F046C11AF047C11BF048C11CF049C198
:101EFE001DF04AC11EF050EC1BF0D8A005D0000E0C
:101F0E0001013B6F000E3A6F010153BF1BD0000E53
:101F1E00176E000E186E800E196E3F0E1A6E50C19F
:101F2E001BF051C11CF052C11DF053C11EF050ECFC
:101F3E001BF0D8A007D09E0E01015F6F580E2ED059
:101F4E00CD8A2ED050C117F051C118F052C119F0E0
:101F5E0053C11AF0AE0E1B6E470E1C6E810E1D6E17
:101F6E003F0E1E6E50EC1BF0D8A01CD0000E176E4C
:101F7E00000E186E000E196E400E1A6E50C11BF038
:101F8E0051C11CF052C11DF053C11EF050EC1BF09C
:101F9E00D8A008D00B0E01015F6FDC0E5E6FD0D79C
:101FAE00CD889BD050C117F051C118F052C119F015
:101FBE0053C11AF0D70E1B6EA30E1C6E000E1D6EB3
:101FCE00400E1E6E50EC1BF0D8A020D0000E176EE7
:101FDE00000E186E400E196E400E1A6E50C11BF098
:101FEE0051C11CF052C11DF053C11EF050EC1BF03C
:101FFE00D8A00CD00B0E01015F6FDC0E5E6FCD8A88
:10200E00CD88000E5D6F010E5C6F67D050C117F06A
:10201E0051C118F052C119F053C11AF0D70E1B6EF0
:10202E00A30E1C6E400E1D6E400E1E6E50EC1BF06D
:10203E00D8A020D0000E176E000E186E800E196EEE
:10204E00400E1A6E50C11BF051C11CF052C11DF052
:10205E0053C11EF050EC1BF0D8A00CD00B0E01019A
:10206E005F6FDC0E5E6FCD8ACD88000E5B6F010E4A
:10207E005A6F33D050C117F051C118F052C119F038
:10208E0053C11AF0EC0E1B6E510E1C6E800E1D6E9F
:10209E00400E1E6E50EC1BF0D8A01FD0000E176E17
:1020AE00000E186EA00E196E400E1A6E50C11BF067
:1020BE0051C11CF052C11DF053C11EF050EC1BF06B
:1020CE00D8A00BD00B0E01015F6FDC0E5E6FCD8AB8
:1020DE00CD88000E596F010E586FC30E926E28C137
:1020EE0026F129C127F13CC124F13DC125F1040E91
:1020FE00806E000E01013F6F010E3E6F3EC117F064
:10210E003FC118F02651CDEC18F0836E000E186EFC
:10211E00BE0E176E73EC20F0080E806E000E0101DD
:10212E003F6F000E3E6F3EC117F03FC118F02451B5
:10213E00CDEC18F0836EE6D4010154515511D8B48C
:10214E00E1D4000E576F000E566F000E836E000E18
:10215E00816E81948196CD90FA0E256E100E266EAC
:10216E002EEC1FF0CFD40001916F000191AF12D170
:10217E00916D9151800A120FD8A09AD0000E206E48
:10218E000A0E1F6E000E1A6E640E196E9151176EA6
:10219E00186A17BE180663EC1EF017C01DF018C0A3
:1021AE001EF09FEC1DF0D8901D361E36D8901D36B1
:1021BE001E36240E1D26000E1E22350E1D24F66E12
:1021CE00100E1E20F76E0900F5CF48F00900F5CF6E
:1021DE0049F00900F5CF4AF00A00F5CF4BF0000E9A
:1021EE00206E640E1F6E000191511D6E1E6A1DBE83
:1021FE001E069FEC1DF0D8901D361E36D8901D364B
:10220E001E36480E1D26000E1E22350E1D24F66E9D
:10221E00100E1E20F76E0900F5CF44F00900F5CF21
:10222E0045F00900F5CF46F00A00F5CF47F0E2EC95
:10223E0012F044C08DF045C08EF046C08FF047C0FE
:10224E0090F08DC044F08EC045F08FC046F090C027
:10225E0047F0000E1A6E0A0E196E00019151176E9C
:10226E00186A17BE180663EC1EF0D890173618368B
:10227E00D89017361836350E1724F66E100E182015
:10228E00F76E0900F5CF48F00900F5CF49F00900C7
:10229E00F5CF4AF00A00F5CF4BF0E2EC12F044C055
:1022AE0050F045C051F046C052F047C053F01200F6
:1022BE0000019151800A750FD8A056D0000E206EE5
:1022CE000A0E1F6E91511D6E1E6A1DBE1E069FECDC
:1022DE001DF0D8901D361E36D8901D361E36240E93
:1022EE001D26000E1E22350E1D24F66E100E1E200B
:1022FE00F76E0900F5CF44F00900F5CF45F009005F
:10230E00F5CF46F00A00F5CF47F0000E1A6E0A0E12
:10231E00196E00019151176E186A17BE180663ECFC
:10232E001EF0D89017361836D89017361836350E48
:10233E001724F66E100E1820F76E0900F5CF48F030
:10234E000900F5CF49F00900F5CF4AF00A00F5CFA4
:10235E004BF0E2EC12F044C050F045C051F046C0D4
:10236E0052F047C053F0120000019151040D350E8A
:10237E00F324F66E100EF420F76E0900F5CF50F030
:10238E000900F5CF51F00900F5CF52F00A00F5CF54
:10239E0053F012009151800A120FD8A09AD0000E5D
:1023AE00206E0A0E1F6E000E1A6E640E196E91517B
:1023BE00176E186A17BE180663EC1EF017C01DF0D4
:1023CE0018C01EF09FEC1DF0D8901D361E36D8900A
:1023DE001D361E36240E1D26000E1E22010E1D2435
:1023EE00F66E100E1E20F76E0900F5CF48F00900AC
:1023FE00F5CF49F00900F5CF4AF00A00F5CF4BF0C2
:10240E00000E206E640E1F6E000191511D6E1E6A2D
:10241E001DBE1E069FEC1DF0D8901D361E36D890A0
:10242E001D361E36480E1D26000E1E22010E1D24C0
:10243E00F66E100E1E20F76E0900F5CF44F009005F
:10244E00F5CF45F00900F5CF46F00A00F5CF47F07D
:10245E00E2EC12F044C08DF045C08EF046C08FF015
:10246E0047C090F08DC044F08EC045F08FC046F04E
:10247E0090C047F0000E1A6E0A0E196E00019151AF
:10248E00176E186A17BE180663EC1EF0D890173632
:10249E001836D89017361836010E1724F66E100E11
:1024AE001820F76E0900F5CF48F00900F5CF49F076
:1024BE000900F5CF4AF00A00F5CF4BF0E2EC12F02E
:1024CE0044C050F045C051F046C052F047C053F0E2
:1024DE00120000019151800A750FD8A056D0000E3F
:1024EE00206E0A0E1F6E91511D6E1E6A1DBE1E06B7
:1024FE009FEC1DF0D8901D361E36D8901D361E3618
:10250E00240E1D26000E1E22010E1D24F66E100E28
:10251E001E20F76E0900F5CF44F00900F5CF45F007
:10252E000900F5CF46F00A00F5CF47F0000E1A6EFF
:10253E000A0E196E00019151176E186A17BE180611
:10254E0063EC1EF0D89017361836D890173618361A
:10255E00010E1724F66E100E1820F76E0900F5CF37
:10256E0048F00900F5CF49F00900F5CF4AF00A000E
:10257E00F5CF4BF0E2EC12F044C050F045C051F0F4
:10258E0046C052F047C053F0120000019151040DA5
:10259E00010EF324F66E100EF420F76E0900F5CF3F
:1025AE0050F00900F5CF51F00900F5CF52F00A00B6
:1025BE00F5CF53F012004750800B0001806F47504B
:1025CE004724866F46BE86818651D8B40DD08629A3
:1025DE00D8A408D0000E446E000E456E000E466E56
:1025EE00000E476E468E08D0000E446E000E456EED
:1025FE00000E466E000E476E4B50800B801B4B50EC
:10260E004B24816F4ABE81818151D8B40DD081296E
:10261E00D8A408D0000E486E000E496E000E4A6E09
:10262E00000E4B6E4A8E08D0000E486E000E496E9C
:10263E00000E4A6E000E4B6E8151D8B403D08651F7
:10264E00D8A409D0000E446E000E456E000E466EE4
:10265E00000E476E12004A504402F3CF8BF0F4CFB7
:10266E008CF08B51826F836B846B856B8C51876F73
:10267E00886B896B8A6B49504502F3CF8BF0F4CF90
:10268E008CF08B518227000E8323842385238C515B
:10269E008727000E882389238A2348504602F3CFCA
:1026AE008BF0F4CF8CF08B518227000E8323842382
:1026BE0085238C518727000E882389238A2384C083
:1026CE0085F083C084F082C083F0826B485045024F
:1026DE00F3CF8BF0F4CF8CF08B5182278C51832368
:1026EE00000E8423000E852349504402F3CF8BF055
:1026FE00F4CF8CF08B5182278C518323000E8423D0
:10270E00000E852384C085F083C084F082C083F0E0
:10271E00826B48504402F3CF8BF0F4CF8CF08B5188
:10272E0082278C518323000E8423000E85234A506A
:10273E004502F3CF8BF0F4CF8CF08B5187278C5161
:10274E008823000E8923000E8A2349504602F3CFB8
:10275E008BF0F4CF8CF08B5187278C518823000E91
:10276E008923000E8A234A504602F3CF8BF0F4CF12
:10277E008CF08B514C6E8C514D6E4E6A4F6A4EC022
:10278E004FF04DC04EF04CC04DF04C6A4C50872768
:10279E004D5088234E5089234F508A2382C04CF0CF
:1027AE0083C04DF084C04EF085C04FF0190E05D099
:1027BE00D8904F324E324D324C32E82EF9D74C5023
:1027CE0087274D5088234E5089234F508A2384C02B
:1027DE0085F083C084F082C083F0826B815186C005
:1027EE004CF04D6A4C26000E4D22820E4C248B6FFF
:1027FE00FF0E4D208C6F0FD0D890873788378937D2
:10280E008A3785BF8781D89082378337843785375B
:10281E008B07D8A08C0789AFEFD7000E816F85AFDD
:10282E0016D0FF0E82154C6EFF0E83154D6EFF0EE9
:10283E0084154E6E7F0E85154F6E4C504D104E10FA
:10284E004F10D8A402D087A102D0010E816F815102
:10285E00D8B41FD0010E8727000E882389238A2320
:10286E008AA117D087C04CF088C04DF089C04EF0B9
:10287E008AC04FF04F344F324E324D324C324CC034
:10288E0087F04DC088F04EC089F04FC08AF08B4B58
:10289E008C2B8CBF0DD08C5103E18B29D8A008D086
:1028AE00000E876F000E886F800E896F7F0E20D00E
:1028BE008CBF05D08C510EE18B05D8B00BD0000E1D
:1028CE00876F000E886F000E896F000E8A6F000EE4
:1028DE00806F0FD08BC086F0FF0E8717FF0E881704
:1028EE007F0E8917000E8A1786B1898FD890863190
:1028FE008A6F80518A1387C044F088C045F089C022
:10290E0046F08AC047F0120000019951800BA66F65
:10291E0099519925A86F98BFA881A851D8B40DD008
:10292E00A829D8A408D0000E966F000E976F000E3F
:10293E00986F000E996F988F06D0000E966F000E4E
:10294E00976F000E986F000E996F9D51800BA76FB9
:10295E00A651A719D8A4A68D9D519D25A76F9CBFE2
:10296E00A781A751D8B40DD0A729D8A408D0000E9E
:10297E009A6F000E9B6F000E9C6F000E9D6F9C8FCA
:10298E0006D0000E9A6F000E9B6F000E9C6F000E0D
:10299E009D6FA851A75DD8B022D0A6AD02D0800EF3
:1029AE00A61BA8C0A9F0A7C0A8F0A9C0A7F096C002
:1029BE00A9F09AC096F0A9C09AF097C0A9F09BC052
:1029CE0097F0A9C09BF098C0A9F09CC098F0A9C040
:1029DE009CF099C0A9F09DC099F0A9C09DF0000E81
:1029EE00A96FA8519E6F9F6B9E1F9F1F9E4B9F2B83
:1029FE00A751A06FA16B9E51A0279F51A123A1BFEC
:102A0E002CD0A15104E11A0EA05DD8A026D096516B
:102A1E00971198119911D8B402D0010E01D0000E61
:102A2E00A96F000E966F000E976F000E986F000E36
:102A3E00996FA7C0A8F015D0A9A105D0D890A9313B
:102A4E000109A96F02D0D890A93396B1A98F9935F3
:102A5E009933983397339633A82BA751A85DD8A0F6
:102A6E00EBD7A6BD29D0A851D8A409D0000E966FD9
:102A7E00000E976F000E986F000E996F12009A510C
:102A8E0096279B5197239C5198239D51992399A149
:102A9E0083D0A9A106D0D890A933A9510109A96F55
:102AAE0002D0D890A93396B1A98F9935993398331E
:102ABE0097339633A82B70D09A51965D9B519759A8
:102ACE009C5198599951800A9E6F9D51800A9E592A
:102ADE00D8B036D096C09EF097C09FF098C0A0F0A8
:102AEE0099C0A1F09E1F9F1FA01FA11F9E2B000E1D
:102AFE009F23A023A1239A519E25A26F9B519F2114
:102B0E00A36F9C51A021A46F9D51A121A56FFF0E13
:102B1E00A225966FFF0EA321976FFF0EA421986F2B
:102B2E00FF0EA521996F800EA61BA96DA951D8A4E1
:102B3E000FD0010E9627000E97239823992308D0C5
:102B4E009A51965F9B51975B9C51985B9D51995BF7
:102B5E009651971198119911D8A41CD0A951D8A4A7
:102B6E0019D0000E966F000E976F000E986F000E24
:102B7E00996F1200D8909637973798379937A9BF23
:102B8E009681A9A102D0D88001D0D890A937A8519A
:102B9E00D8A4A80798AFEED7000EA76FA9AF0AD09A
:102BAE00A9C09EF07F0E9E17D8A402D096A102D087
:102BBE00010EA76FA751D8B420D0010E9627000E94
:102BCE0097239823992399A118D096C09EF097C069
:102BDE009FF098C0A0F099C0A1F0A135A133A03309
:102BEE009F339E339EC096F09FC097F0A0C098F082
:102BFE00A1C099F0A829D8A4A82BA829D8B403D08D
:102C0E00A851D8A40DD0000E966F000E976F000E2F
:102C1E00986F000E996FA851D8A402D0000EA66F1F
:102C2E00A8A102D0988F01D0989FD890A831996F03
:102C3E00A6BF998F96C096F097C097F098C098F05F
:102C4E0099C099F012002E50800B376E2E502E2404
:102C5E00426E2DBE42804250D8B40DD04228D8A428
:102C6E0008D0000E2B6E000E2C6E000E2D6E000E78
:102C7E002E6E2D8E06D0000E2B6E000E2C6E000EBC
:102C8E002D6E000E2E6E3250800B371A32503224BB
:102C9E00436E31BE43804350D8B40DD04328D8A4E0
:102CAE0008D0000E2F6E000E306E000E316E000E2C
:102CBE00326E318E06D0000E2F6E000E306E000E6C
:102CCE00316E000E326E2F50301031103210D8A4EB
:102CDE0015D0000E2B6E000E2C6E000E2D6E000EFB
:102CEE002E6E800E2D127F0E2E122BC02BF02CC0AE
:102CFE002CF02DC02DF02EC02EF012004250D8A474
:102D0E0011D0000E2B6E000E2C6E000E2D6E000ECE
:102D1E002E6E2BC02BF02CC02CF02DC02DF02EC003
:102D2E002EF012004350336E346A331E341E334A73
:102D3E00342A4250356E366A335035263450362298
:102D4E007F0E35243C6E000E36203D6E2BC038F0C3
:102D5E002CC039F02DC03AF02EC03BF0000E2B6E79
:102D6E00000E2C6E000E2D6E000E2E6E000E3E6EA0
:102D7E00000E3F6E000E406E000E416E000E436E52
:102D8E0028D04350D8B411D0D890383639363A3688
:102D9E003B36D8902B362C362D362E3641BE2B8018
:102DAE00D8903E363F36403641362F50385C305044
:102DBE00395831503A5832503B58D8A009D0418C2E
:102DCE002F50385E3050395A31503A5A32503B5AA1
:102DDE00432A190E4364D5D7385039103A103B1098
:102DEE00D8B411D03E800FD0D8902B362C362D363D
:102DFE002E3641BE2B80D8903E363F364036413679
:102E0E003C06D8A03D062DAEEFD7000E436E41AE68
:102E1E0016D0FF0E3E14336EFF0E3F14346EFF0EAF
:102E2E004014356E7F0E4114366E3350341035100B
:102E3E003610D8A402D02BA002D0010E436E435000
:102E4E00D8B41FD0010E2B26000E2C222D222E229E
:102E5E002EA017D02BC033F02CC034F02DC035F07F
:102E6E002EC036F03634363235323432333233C049
:102E7E002BF034C02CF035C02DF036C02EF03C4A6D
:102E8E003D2A3DBE10D03D5003E13C28D8A00BD0CA
:102E9E00000E3D6E3C68000E2B6E000E2C6E000E6A
:102EAE002D6E000E2E6E3DBE05D03D5011E13C0440
:102EBE00D8B00ED0000E3D6E000E3C6E000E2B6E86
:102ECE00000E2C6E000E2D6E000E2E6E000E376E46
:102EDE003CC042F042A002D02D8E01D02D9ED89043
:102EEE0042302E6E37502E122BC02BF02CC02CF0F1
:102EFE002DC02DF02EC02EF012000001956F6D0E1C
:102F0E0000019565ACD0000E206E0A0E1F6E000EED
:102F1E001A6E640E196E95C017F0186A63EC1EF0E7
:102F2E0017C01DF018C01EF09FEC1DF0D8901D3676
:102F3E001E36D8901D361E36240E1D26000E1E225D
:102F4E00350E1D24F66E100E1E20F76E0900F5CFFD
:102F5E0048F00900F5CF49F00900F5CF4AF00A0014
:102F6E00F5CF4BF0000E206E640E1F6E95C01DF057
:102F7E001E6A9FEC1DF0D8901D361E36D8901D3659
:102F8E001E36480E1D26000E1E22350E1D24F66E10
:102F9E00100E1E20F76E0900F5CF44F00900F5CF94
:102FAE0045F00900F5CF46F00A00F5CF47F0E2EC08
:102FBE0012F044C091F045C092F046C093F047C065
:102FCE0094F0000E1A6E0A0E196E95C017F0186A5C
:102FDE0063EC1EF0D89017361836D8901736183680
:102FEE00350E1724F66E100E1820F76E0900F5CF69
:102FFE0048F00900F5CF49F00900F5CF4AF00A0074
:10300E00F5CF4BF091C044F092C045F093C046F01E
:10301E0094C047F0E2EC12F044C08DF045C08EF043
:10302E0046C08FF047C090F08DC044F08EC045F082
:10303E008FC046F090C047F0000E486E000E496EED
:10304E00000E4A6E3F0E4B6EE2EC12F044C050F092
:10305E0045C051F046C052F047C053F012000A0E60
:10306E00000195656BD0000E1A6E0A0E196E95C092
:10307E0017F0186A63EC1EF0D89017361836D890F1
:10308E0017361836350E1724F66E100E1820F76EFA
:10309E000900F5CF48F00900F5CF49F00900F5CF4A
:1030AE004AF00A00F5CF4BF0000E206E0A0E1F6E8E
:1030BE0095C01DF01E6A9FEC1DF0D8901D361E3671
:1030CE00D8901D361E36240E1D26000E1E22350EDD
:1030DE001D24F66E100E1E20F76E0900F5CF44F07B
:1030EE000900F5CF45F00900F5CF46F00A00F5CFFF
:1030FE0047F0E2EC12F044C091F045C092F046C0A9
:10310E0093F047C094F091C044F092C045F093C044
:10311E0046F094C047F0000E486E000E496E000E49
:10312E004A6E3F0E4B6EE2EC12F044C050F045C0BA
:10313E0051F046C052F047C053F0120000019551B5
:10314E00040D350EF324F66E100EF420F76E090002
:10315E00F5CF44F00900F5CF45F00900F5CF46F064
:10316E000A00F5CF47F0000E486E000E496E000EB5
:10317E004A6E3F0E4B6EE2EC12F044C050F045C06A
:10318E0051F046C052F047C053F01200196E17505E
:10319E001810D8A423D076D0BF0E1200860E1200BF
:1031AE00DB0E1200CF0E1200E60E12006D0E120094
:1031BE007D0E1200070E12007F0E12006F0E12000F
:1031CE00770E12007C0E1200580E12005E0E1200C8
:1031DE00790E1200710E1200000E12001950000A24
:1031EE00D8B4DAD7010AD8B4D9D7030AD8B4D8D705
:1031FE00010AD8B4D7D7070AD8B4D6D7010AD8B49B
:10320E00D5D7030AD8B4D4D7010AD8B4D3D70F0A66
:10321E00D8B4D2D7010AD8B4D1D7030AD8B4D0D7EC
:10322E00010AD8B4CFD7070AD8B4CED7010AD8B47A
:10323E00CDD7030AD8B4CCD7010AD8B4CBD7CCD7C4
:10324E003F0E1200060E12005B0E12004F0E120001
:10325E00660E12006D0E12007D0E1200070E120089
:10326E007F0E12006F0E1200770E12007C0E1200EF
:10327E00580E12005E0E1200790E1200710E120020
:10328E00000E12001950000AD8B4DAD7010AD8B4C9
:10329E00D9D7030AD8B4D8D7010AD8B4D7D7070AD2
:1032AE00D8B4D6D7010AD8B4D5D7030AD8B4D4D750
:1032BE00010AD8B4D3D70F0AD8B4D2D7010AD8B4DA
:1032CE00D1D7030AD8B4D0D7010AD8B4CFD7070ABA
:1032DE00D8B4CED7010AD8B4CDD7030AD8B4CCD738
:1032EE00010AD8B4CBD7CCD7256E2550D8A420AEA2
:1032FE001AD01DC021F01EC022F01FC023F020C026
:10330E0024F0211E221E231E241E212A000E2222FC
:10331E002322242221C027F022C028F023C029F026
:10332E0024C02AF008D01DC027F01EC028F01FC0F0
:10333E0029F020C02AF01D501E101F102010D8A4F6
:10334E0009D0000E1D6E000E1E6E000E1F6E000EBA
:10335E00206E1200960E266E06D0262AD8902A329D
:10336E00293228322732000E2714216E000E28141F
:10337E00226E000E2914236EFE0E2A14246E215086
:10338E00221023102410D8B40DD0E7D7262A010E10
:10339E002726000E282229222A22D8902A322932C4
:1033AE0028322732000E2714216E000E2814226EAA
:1033BE00000E2914236EFF0E2A14246E21502210A3
:1033CE0023102410D8B407D0E1D72606D89027367C
:1033DE00283629362A3629BE03D0020E2660F5D7A6
:1033EE0026B008D0FF0E2716FF0E28167F0E2916C0
:1033FE00FF0E2A16D890263226C021F0226A236AA2
:10340E00246A21C024F0236A226A216A21502712DD
:10341E00225028122350291224502A122550D8A4A3
:10342E0020AE01D02A8E27C01DF028C01EF029C064
:10343E001FF02AC020F0120019C01FF0206A216A66
:10344E0018341F3601E320801F50276E2750D8A452
:10345E0009D0000E176E000E186E000E196E000EBB
:10346E001A6E12001DC01FF0206A216A1C341F360E
:10347E0001E320801F50266E2650D8A409D0000EDE
:10348E00176E000E186E000E196E000E1A6E1200D8
:10349E00188EFF0E1716FF0E1816000E19161C8E1C
:1034AE00FF0E1B16FF0E1C16000E1D16000E226EB2
:1034BE00000E236E000E246E000E256E7F0E275E0C
:1034CE002650980F275E180E266ED8902236233679
:1034DE00243625361B50175C1C5018581D50195891
:1034EE00D8A007D01B50175E1C50185A1D50195AE1
:1034FE002280D890173618361936262EE6D727AEE4
:10350E0016D02750800A970FD8B009D0000E176E2C
:10351E00000E186E000E196E000E1A6E1200D89064
:10352E002532243223322232273EF9D715D0170EF8
:10353E0027640FD0000E176E000E186E000E196E57
:10354E00000E1A6E1200D8902236233624362536F7
:10355E0027062750D8A4F7D722C017F023C018F09B
:10356E0024C019F025C01AF0120019341A34246E32
:10357E002450D8A409D0000E176E000E186E000E3F
:10358E00196E000E1A6E12001D341E34236E235057
:10359E00D8A409D0000E176E000E186E000E196E0C
:1035AE00000E1A6E1200198EFF0E1716FF0E181649
:1035BE00FF0E1916000E1A161D8EFF0E1B16FF0E8D
:1035CE001C16FF0E1D16000E1E16000E1F6E000E90
:1035DE00206E000E216E000E226E7F0E245E235092
:1035EE00A00F245E200E236ED8901F362036213673
:1035FE0022361B50175C1C5018581D5019581E505F
:10360E001A58D8A009D01B50175E1C50185A1D50BE
:10361E00195A1E501A5A1F80D89017361836193656
:10362E001A36232EE1D724AE16D02450800A9F0FCF
:10363E00D8B009D0000E176E000E186E000E196E5F
:10364E00000E1A6E1200D8902232213220321F3212
:10365E00243EF9D715D01F0E24640FD0000E176E1E
:10366E00000E186E000E196E000E1A6E1200D89013
:10367E001F3620362136223624062450D8A4F7D7FA
:10368E001FC017F020C018F021C019F022C01AF088
:10369E001200000E17141F6E000E1814206E800EEE
:1036AE001914216E7F0E1A14226E1F502010211035
:1036BE002210D8A408D0000E176E000E186E000E41
:1036CE00196E000E1A6E000E1B141F6E000E1C14C7
:1036DE00206E800E1D14216E7F0E1E14226E1F5042
:1036EE00201021102210D8A408D0000E1B6E000E40
:1036FE001C6E000E1D6E000E1E6E1AAE1DD017C073
:10370E001FF018C020F019C021F01AC022F01F1EA1
:10371E00201E211E221E1F2A000E202221222222BE
:10372E00000E1F24176E000E2020186E000E212092
:10373E00196E800E22201A6E1EAE1DD01BC01FF0F9
:10374E001CC020F01DC021F01EC022F01F1E201E26
:10375E00211E221E1F2A000E202221222222000EAE
:10376E001F241B6E000E20201C6E000E21201D6ECD
:10377E00800E22201E6E000E171A000E181A000E52
:10378E00191A800E1A1A000E1B1A000E1C1A000EA1
:10379E001D1A800E1E1A1B50175C1C5018581D50F7
:1037AE0019581E501A58D8B002D0D8901200D8808E
:1037BE0012009E90010158515911D8A415D05C5198
:1037CE005D11D8A411D05A515B11D8A40DD081B47B
:1037DE0003D0016A012A01D0016A014601468150D7
:1037EE000118FB0B0118816E664A672A604A612A2E
:1037FE005E4A5F2A5C4A5D2A01015C055D11D8B400
:10380E0061BE1CD0615004E1060E605CD8A016D0DB
:10381E0081B403D0016A012A01D0016A0146014632
:10382E0081500118FB0B0118816E000E616E000EA7
:10383E00606E000E01015D6F000E5C6F5A055B112C
:10384E00D8B45FBE1CD05F5004E10C0E5E5CD8A0F5
:10385E0016D081B403D0016A012A01D0016A014653
:10386E00014681500118FB0B0118816E000E5F6E30
:10387E00000E5E6E000E01015B6F000E5A6F580552
:10388E005911D8B45DBE1CD05D5004E1140E5C5CC1
:10389E00D8A016D081B403D0016A012A01D0016AE2
:1038AE000146014681500118FB0B0118816E000E76
:1038BE005D6E000E5C6E000E0101596F000E586FAA
:1038CE001FEC21F01200000194359535556E5550C0
:1038DE00D8A409D0000E926F000E936F000E946F55
:1038EE00000E956F120092C096F093C097F094C0A0
:1038FE0098F095C099F0200E05D0D8909933983352
:10390E0097339633E82EF9D79651546E948FFF0E57
:10391E009217FF0E9317FF0E9417000E9517960E23
:10392E00555E55AE16D05550800A970FD8B009D0B7
:10393E00000E926F000E936F000E946F000E956F37
:10394E001200D8909533943393339233553EF9D772
:10395E0015D01F0E55640FD0000E926F000E936F90
:10396E00000E946F000E956F1200D8909237933719
:10397E009437953755065550D8A4F7D75450D8B428
:10398E0008D0951F941F931F926D000E93239423BE
:10399E00952392C092F093C093F094C094F095C08A
:1039AE0095F012000600FACF05F0FBCF06F0E9CF36
:1039BE0007F0EACF08F0E1CF09F0E2CF0AF0D9CF55
:1039CE000BF0DACF0CF0F3CF0DF0F4CF0EF0F6CF04
:1039DE000FF0F7CF10F0F8CF11F0F5CF12F069C05D
:1039EE0013F06AC014F06BC015F06CC016F09EB0E8
:1039FE00E0EC1BF0F2B499EC20F09EBA43EC1DF013
:103A0E00F294F2A213D0020E026E260E016E86EC16
:103A1E0020F0F29262506310D8A404D0000E636EB0
:103A2E00010E03D0000E636E000E626E16C06CF0B7
:103A3E0015C06BF014C06AF013C069F012C0F5FF28
:103A4E0011C0F8FF10C0F7FF0FC0F6FF0EC0F4FF55
:103A5E000DC0F3FF0CC0DAFF0BC0D9FF0AC0E2FFA6
:103A6E0009C0E1FF08C0EAFF07C0E9FF06C0FBFF7F
:103A7E0005C0FAFF69921100040083B603D0016AF3
:103A8E00012A01D0016A0146014601468350011800
:103A9E00F70B0118836EAECF68F04F0E6818D8A4DE
:103AAE0008D056045710D8B404D0000E576E010E2D
:103ABE00566E4E0E6818D8A415D056045710D8A4BA
:103ACE0011D0000E0101576F010E566F000E556F8B
:103ADE00000E546F000E576E000E566E000E5B6E8B
:103AEE00000E5A6E460E6818D8A408D05604571009
:103AFE00D8A404D0000E5B6E010E5A6E460E6818E6
:103B0E00D8A412005A045B10D8A41200000E0101B2
:103B1E00576F000E566F000E556F010E546F000E4C
:103B2E00576E000E566E000E5B6E000E5A6E120031
:103B3E00000E226E20AE06D01F6C201ED8B0202A9A
:103B4E00010E226E1EAE06D01D6C1E1ED8B01E2A91
:103B5E00010E221A000E246E000E236E1F5020102E
:103B6E00D8B41CD0010E216E04D0D8901F3620364A
:103B7E00212A20AEFAD7D890233624361F501D5C4A
:103B8E0020501E58D8A005D01F501D5E20501E5A22
:103B9E002380D89020321F32212EEDD72250D8B458
:103BAE0004D0236C241ED8B0242A23C01DF024C0B8
:103BBE001EF01200000E1F6E000E206E000E216E03
:103BCE00000E226E1B501C101D101E10D8B42AD0D1
:103BDE00010E236E06D0D8901B361C361D361E36AF
:103BEE00232A1EAEF8D7D8901F362036213622361D
:103BFE001B50175C1C5018581D5019581E501A583F
:103C0E00D8A009D01B50175E1C50185A1D50195AB7
:103C1E001E501A5A1F80D8901E321D321C321B3273
:103C2E00232EE1D71FC017F020C018F021C019F0C5
:103C3E0022C01AF012004E6E4E50EDEC1FF017C05F
:103C4E004CF018C04DF04CC017F04DC018F0000EDF
:103C5E001A6E050E196E4DEC20F017C01DF018C02F
:103C6E001EF0000E1EBEFF0E1F6E206E010E7BECB0
:103C7E0019F01DC02BF01EC02CF01FC02DF020C05F
:103C8E002EF0000E2F6EC00E306E7F0E316E440E73
:103C9E00326E2AEC16F02BC048F02CC049F02DC025
:103CAE004AF02EC04BF048C044F049C045F04AC01F
:103CBE0046F04BC047F01200000E1C6E18AE06D038
:103CCE00176C181ED8B0182A010E1C6E1AAE04D02E
:103CDE00196C1A1ED8B01A2A19501A10D8B418D046
:103CEE00010E1B6E04D0D89019361A361B2A1AAE46
:103CFE00FAD71950175C1A501858D8A004D019507A
:103D0E00175E1A50185AD8901A3219321B2EF1D744
:103D1E001C50D8B404D0176C181ED8B0182A17C06F
:103D2E0017F018C018F012001B501C101D101E109A
:103D3E00D8B424D0010E1F6E06D0D8901B361C3678
:103D4E001D361E361F2A1EAEF8D71B50175C1C5090
:103D5E0018581D5019581E501A58D8A008D01B506C
:103D6E00175E1C50185A1D50195A1E501A5AD890C8
:103D7E001E321D321C321B321F2EE7D717C017F012
:103D8E0018C018F019C019F01AC01AF01200849455
:103D9E008492000E186E190E176E60EC20F0010E54
:103DAE00216E030E216401D00BD0030EBEEC20F069
:103DBE00000E186E060E176E60EC20F0212AF1D759
:103DCE00020EBEEC20F0000E216E030E216401D017
:103DDE0012002150010DDB0EF324D96E000EF420DB
:103DEE00DA6EDF501F6E000EA8EC1FF0212AEDD701
:103DFE00580EF66E420EF76E000EF86E0900F5CFF5
:103E0E005EF10900F5CF5FF1540EF66E420EF76EBD
:103E1E00000EF86E00EEDBF010EE04F00900F5CFA8
:103E2E00EEFFE550E150FAE101EE54F00A0EEE6AB3
:103E3E00E806FDE100EE56F0130EEE6AE806FDE12F
:103E4E0069906992000EF86E000153EF0DF015D0D7
:103E5E0025C0F6FF26C0F7FF000EF86E0F0EF764B2
:103E6E0003D00800F55005D0F6CFD9FFF7CFDAFF13
:103E7E00DF5059EC1FF0254A262A25C0F6FF26C032
:103E8E00F7FF000EF86E0F0EF76403D00800F55022
:103E9E0005D0F6CFD9FFF7CFDAFFDF500009D8B43F
:103EAE001200D6D7246E1ED0010E1F6E000EA8EC87
:103EBE001FF0000E186E020E176E60EC20F012004E
:103ECE00020E216E010ECCEC1FF01200100E1F6EB2
:103EDE00000EA8EC1FF0120024C01FF0010EA8EC7B
:103EEE001FF012002450080AD8B4F0D7020AD8B432
:103EFE00E7D7060AD8B4D8D7EFD7000E0001AE1B0D
:103F0E00000EAF1B000EB01B800EB11BAAC096F0A8
:103F1E00ABC097F0ACC098F0ADC099F0AEC09AF0BF
:103F2E00AFC09BF0B0C09CF0B1C09DF08BEC14F014
:103F3E0096C0AAF097C0ABF098C0ACF099C0ADF0A7
:103F4E001200206E20B002D0849401D08484010E21
:103F5E0021EC20F0010E21EC20F084921F380F0B83
:103F6E00BEEC20F01F500F0BBEEC20F02050D8B44A
:103F7E0005D0320E0400E82EFDD71200000E186E8A
:103F8E00020E176E60EC20F01200226E09D0800E29
:103F9E0005D0C00E03D0900E01D0D00E236E0DD0E2
:103FAE002150010AD8B4F3D7030AD8B4F2D7010AC4
:103FBE00D8B4F1D7070AD8B4F0D722042326235059
:103FCE0080091F6E000EA8EC1FF012001D6E1DC0A2
:103FDE0019F019461946C2501918C30B1918C26E9A
:103FEE00C282C2B2FED7C350C4CF19F01A6A19C02A
:103FFE001AF0196A19101B6E1A501C6E1BC017F09E
:10400E001CC018F012001750181019101A10D8B43E
:10401E0008D0000E171A000E181A000E191A800E6C
:10402E001A1A17C017F018C018F019C019F01AC0D4
:10403E001AF012001A6E000E1C6E000E1B6E03D0CC
:10404E0004001B4A1C2A1A50176E186A1B50175C64
:10405E001850800A196E1C50800A1958D8A01200E8
:10406E00EFD70AD018C0F6FF19C0F7FF0800F550B9
:10407E000BEC21F0184A192A18C0F6FF19C0F7FFE9
:10408E000800F5500009D8B41200ECD717501902E9
:10409E00F3CF1BF0F4CF1CF017501A02F3501C266E
:1040AE0018501902F3501C261BC017F01CC018F034
:1040BE001200000E1A6E000E196E07D0C80E040004
:1040CE000400E82EFCD7194A1A2A1950175C1A5008
:1040DE001858D8A01200F2D7000E1A6E000E196EE4
:1040EE0007D0C80E04000400E82EFCD7194A1A2A7D
:1040FE001950175C1A501858D8A01200F2D7000E9B
:10410E00046E000E036E07D0C80E04000400E82EE5
:10411E00FCD7034A042A0350015C04500258D8A06D
:10412E001200F2D7F294F29481B603D0016A012AFA
:10413E0001D0016A01460146014681500118F70B74
:10414E000118816E25EC21F01200B896000EAC6EAF
:10415E00190EAF6E000EB06EAC84AC8A000EAB6E54
:10416E00AB88AB8EAECF17F0AECF17F012001E6E2F
:10417E001EC01DF01D3A83501D180F0B1D18836EA7
:10418E00010E21EC20F08482040000F084921200D3
:10419E00000ED56ED59AD596D58CF294D580D58253
:1041AE00D584300ED76ED40ED66EF28EF28AD58EA0
:1041BE001200196E000E186E3A0E196005D02F0EF1
:1041CE00196402D0010E186E18C017F017301200C5
:1041DE00000EC26E0C0EC16E070E926EF10E936E35
:1041EE00800E946E000E956E000E966E1200000EEE
:1041FE00CD6E300ECD6E19EC21F09D80000E9E6EB0
:10420E00000EA06ECD801200176E01D00400ACA27D
:10421E00FDD717C0ADFF1200000EC26EC280890E10
:10422E00C06E120001015F51CF6E5EC1CEFF120053
:10423E0001015F51CF6E5EC1CEFF1200300ED76E00
:0C424E00D40ED66E1200280C0106DC0B0A
:020000040020DA
:08000000FFFFFFFFFFFFFFFF00
:020000040030CA
:0E000000FF011F1FFF8385FF0FC00FE00F40A1
:00000001FF
